:02000000592B7A
:10000800FF00030E8301BC000A08BD008A017008C6
:10001800A9007108A8007208A7007308A600740850
:10002800A5007508A4007808A3007908A2007C0838
:10003800A1000B1D3128F8308100B20A0319B30A58
:100048003308013A031D2A28F4303206031D2F28ED
:10005800B201B301DC22FB308B0500303102031DF5
:100068003F2800303002031D3F2800302F02031DB7
:100078003F2817302E02031844288815861546286D
:10008800881186110C1D4A28FB308C050C1C512840
:10009800B60A0319B70AFE308C058B1C5528FD30AB
:1000A8008B052908F0002808F1002708F200260827
:1000B800F3002508F4002408F5002308F8002208B6
:1000C800F9002108FC003D088A003C0E8300FF0E61
:0400D8007F0E09008E
:1000DC0083120313FB01FA01F901F801A001730D5E
:1000EC00F80D7408F8027508031C750FF9027608F0
:1000FC00031C760FFA027708031C770FFB02000132
:10010C00031C0130A002F30D0730FC00730DF80D39
:10011C00F90DFA0DFB0DA00D7408731CA728F8023D
:10012C007508031C750FF9027608031C760FFA028A
:10013C007708031C770FFB020001031C0130A0029F
:10014C00B828F80775080318750FF907760803180F
:10015C00760FFA0777080318770FFB0700010318CF
:10016C000130A007F30DFC0B8C28720DF80DF90D66
:10017C00FA0DFB0DA00D7408731CD628F802750837
:10018C00031C750FF9027608031C760FFA02770828
:10019C00031C770FFB020001031C0130A002E728AF
:1001AC00F80775080318750FF90776080318760F0A
:1001BC00FA0777080318770FFB07000103180130C3
:1001CC00A007F20D0730FC00720DF80DF90DFA0DB9
:1001DC00FB0DA00D7408721C0529F8027508031C90
:1001EC00750FF9027608031C760FFA027708031CC8
:1001FC00770FFB020001031C0130A0021629F8073F
:10020C0075080318750FF90776080318760FFA07A7
:10021C0077080318770FFB07000103180130A007BC
:10022C00F20DFC0BEA28710DF80DF90DFA0DFB0D12
:10023C00A00D7408721C3429F8027508031C750F84
:10024C00F9027608031C760FFA027708031C770F65
:10025C00FB020001031C0130A0024529F8077508B8
:10026C000318750FF90776080318760FFA07770845
:10027C000318770FFB07000103180130A007F10DDD
:10028C000730FC00710DF80DF90DFA0DFB0DA00DEA
:10029C007408711C6329F8027508031C750FF902A8
:1002AC007608031C760FFA027708031C770FFB0203
:1002BC000001031C0130A0027429F807750803180B
:1002CC00750FF90776080318760FFA0777080318E5
:1002DC00770FFB07000103180130A007F10DFC0B91
:1002EC004829700DF80DF90DFA0DFB0DA00D7408D1
:1002FC00711C9229F8027508031C750FF902760817
:10030C00031C760FFA027708031C770FFB0200011F
:10031C00031C0130A002A329F80775080318750FF8
:10032C00F90776080318760FFA0777080318770F82
:10033C00FB07000103180130A007F00D0730FC008B
:10034C00700DF80DF90DFA0DFB0DA00D7408701C55
:10035C00C129F8027508031C750FF9027608031CF5
:10036C00760FFA027708031C770FFB020001031CBF
:10037C000130A002D229F80775080318750FF90788
:10038C0076080318760FFA0777080318770FFB0720
:10039C00000103180130A007F00DFC0BA629701802
:1003AC00E5297408F80775080318750FF90776081E
:1003BC000318760FFA0777080318770FFB07080066
:1003CC00831203132230FC00F801F901FA01FB013E
:1003DC00FC0303191C2A0310FB0CFA0CF90CF80C87
:1003EC00F30CF20CF10CF00C031CEE29FC030319BA
:1003FC000E2A7408F80775080318750FF9077608A4
:10040C000318760FFA0777080318770FFB07F22902
:10041C007408F80775080318750FF90776080318A0
:0E042C00760FFA0777080318770FFB07080012
:0E043A008312031335088A003408820008007C
:1004480083120313F301F40143087402031D2E2AD7
:10045800420873020318432AF101F20100307202C4
:10046800031D382A9B30710203183F2A0000F10A45
:100478000319F20A322AF30A0319F40A282A08008F
:1004880083120313F801F9011030FC00710DF80D07
:10049800F90D7408F8027508031C750FF9020318A2
:1004A8005C2A7408F80775080318750FF907031014
:0A04B800F00DF10DFC0B4A2A0800BC
:1004C20083120313F101F20145087202031D6B2A24
:1004D200440871020318732A00000000F10A03198C
:0604E200F20A652A080081
:1004E8005A30831203133E07F3003F080318013EF6
:1004F800F4000330F2007308F0007408F100720889
:1005080003198B2AF00DF10D7010FF3E842AF43088
:100518007007F20071080318013E013EF3007208EB
:10052800C0007308C1007208F4007308F500F40DE8
:10053800F50D74107508F000F10170089600FF3091
:100548007405950010140C19AA2AA72AFB308C05EB
:100558000715E830F4000330F5004008F0004108C2
:10056800F10044227008C2007108C3002422071158
:02057800080079
:10057A0083120313B601B701B801B901BA01BB016D
:10058A00AA01AB01AC01AD01AE01AF01B001B101ED
:10059A008F018E0102308316860083128601C030D5
:0E05AA008B0483160C14183083129000080086
:1005B80083120313B601B7018F018E0106150A30A5
:1005C800C4000030C500612206118618EC2AE92A09
:1005D80019309000861CF12AEE2A183090000F0876
:1005E800F100F0010E087004F8007108F9000030FD
:1005F800F9043708F7003608F600F401F501780821
:10060800F0007908F100F201F3017408F0077508A9
:100618000318750FF10776080318760FF2077708A5
:100628000318770FF3077008B8007108B90072084B
:10063800BA007308BB007008AA007108AB00720802
:10064800AC007308AD002230F400F501F601F701A3
:10065800E621E830F4000330F500F601F7016E20DA
:100668007008AE007108AF007208B0007308B100DE
:0C067800B10CB00CAF0CAE0CB1130800BC
:100684001D228A110A128000840AB40A0319B50AC9
:08069400F003031D422B0800D6
:10069C008316031307110830831297003030900033
:0606AC008F018E01080021
:1006B200831603138801023086004E23BD22873041
:1006C20083168100F0308B00BA308312BE00FF30F7
:1006D200BF0074229030C2000130C30024220A30CD
:1006E200BE000030BF0074229030C2000130C3004F
:0606F2002422652B7B2B86
:02400E004A2F37
:00000001FF
