:020000003029A5
:10000800FF00030E8301A8000A08A9008A017008EE
:10001800A3007B08A2007C08A1007D08A0008B1C1F
:100028003528061C3428DD200630FB001330FC0080
:10003800AD30FD00FD0B1E28FC0B1E28FB0B1E28F7
:100048000000000024210830FB001B30FC00273092
:10005800FD00FD0B2D28FC0B2D28FB0B2D2815284A
:100068008B102308F0002208FB002108FC00200860
:10007800FD0029088A00280E8300FF0E7F0E090064
:10008800831203137008F100F0010830FC007108B6
:10009800F40C03185328FC0B4C28F101003403100E
:1000A8005828F40C0318F107F10CF00CFC0B552838
:0200B80008003E
:1000BA00831203133508F0000A30F4004420700854
:1000CA00F2007108F300F30CF20CF313F30CF20CC8
:1000DA00F31372089500CF301705F300033070054B
:1000EA00F2007208F000F00D7010F00D7010F00DB3
:0E00FA007010F00D701070087304970008006D
:10010800FF308316031385000930860087015130BC
:1001180088008312860187018801063083169F00B4
:08012800013083129F00080062
:10013000831603130711F9309200073083129200DF
:0A0140000C30970001309100080018
:0E014A008B010B168316031301178B17080089
:10015800C530831203131F05F2003308F000F00DB9
:100168007010F00D7010F00D7010700872049F0080
:100178009F149F1CC028BD281E08F100F00183169B
:0A0188001E08F0040030F104080026
:10019200D730831203138705413087045A30B500E4
:1001A2005D20071AD6280314D7280310F00103187C
:0801B200F00A7008870508003F
:0A01BA009630831203138705080036
:1001C400BE30831203138705283087045A30B500E4
:0E01D4005D20F001071AF00A70088704080089
:1001E200B730831203138705213087045A30B500D4
:1001F2005D20071AFE280314FF280310F0010318DC
:08020200F00A700887050800EE
:10020A0083120313F301F40134087402031D0F2946
:10021A003308730203182329F101F2010030720234
:10022A00031D19299B30710203181F29F10A0319AA
:0E023A00F20A1329F30A0319F40A092908002D
:10024800DE3083120313870548308704F001071A4C
:08025800F00A70088704080099
:1002600083120313AF01B001B101B20184209820C1
:10027000A52002308312B300AC2070088312AA00BC
:100280007108AB000330B300AC2070088312AC00DF
:100290007108AD008030023AF00080302B06700209
:1002A000031D54292A08BC3C03185829C920832956
:1002B00080302B06F0008030013A7002031D622965
:1002C0002C302A0203186629E220832980302D066B
:1002D000F0008030013A7002031D70292C302C028E
:1002E00003187429242183298030023AF0008030D9
:1002F0002D067002031D7E292C08BC3C03188229A0
:10030000F1208329DD20B301AC2070088312A40002
:100310007108A50002307102031D9029003070029F
:100320000318A729F101061AF10AF001861AF00A4A
:100330007008F104F001061BF00A7008F104F001E6
:10034000861BF00A7108F00470088604BC29F101CC
:10035000061AF10AF001861AF00A7008F104F00199
:10036000061BF00A7008F104F001861BF00A710800
:10037000F004F00970088605861DE229061586102E
:10038000861DE12988170430FB000C30FC00333057
:10039000FD00FD0BC929FC0BC929FB0BC929000075
:1003A000000088130430FB000C30FC003330FD00EB
:1003B000FD0BD829FC0BD829FB0BD8290000000025
:1003C000C029E529061186148813AF01B001F00198
:1003D000081AF00A0808F0050319FE290A30B300CC
:1003E0000030B4000521F001081AF00A0808F005F1
:1003F0000319FE290130AF000030B000881A022A2C
:100400000314032A0310F0010318F00A700808050A
:10041000F1002F0830040319132A881A112A2E100C
:10042000122A2E14142A2E10F0012E18F00A700829
:1004300071048800B101B201F001081BF00A08083C
:10044000F0050319332A0A30B3000030B400052147
:10045000F001081BF00A0808F0050319332A0130DF
:10046000B1000030B2000618372A0314382A0310EE
:10047000F0010318F00A70080605F1003108320493
:100480000319482A0618462AAE10472AAE14492AEC
:10049000AE10F001AE18F00A7008710486006430E6
:0C04A000B3000030B40005213929552AB2
:02400E004A2F37
:00000001FF
